:100000000C94C0160C94F1160C94F1160C94F11685
:100010000C94F1160C94F1160C94F1160C94F11644
:100020000C94F1160C94F1160C94F1160C94F11634
:100030000C94F1160C945F750C94F1160C94F11657
:100040000C94F1160C9441BE0C94F1160C94F1161C
:100050000C94F1160C94F1160C941B770C945D8A99
:100060000C94F1160C9425E30C94F1160C94F116F3
:100070000C94F1160C94F1160C94F1160C94F116E4
:100080000C943DC00C94F1160C94F1160C94F116DE
:100090000C94F1160C94F1160C94F1160C94F116C4
:1000A0000C94F1160C94F1160C9410C00C94F116EB
:1000B0000C94F1160C94F1160C94F1160C94E3BF09
:1000C0000C94F1160C94F1160C94F1160C94F11694
:1000D0000C94F1160C94F1160C94AA590C946B59CB
:1000E0000C94F11631324E327F329C32B132DA3218
:1000F0004733AD335A34A638B438AD38D438D8384D
:10010000F2385B3D073953397A39A139CA39203A77
:10011000313A423A533A643A753A5B3D583C5B3D5A
:10012000633CD33CE73C073D4FAB52AB41AB45ABE7
:100130004BAB89AB56AB5AAB60AB64AB68AB6EAB49
:1001400072AB76AB89AB7CAB80AB84AB83B288B24D
:100150008DB297B2A1B21AB3ABB2B3B2BBB2C5B251
:10016000CFB2D9B2E8B2F2B21AB3FCB206B310B34E
:10017000084AD73B3BCE016E84BCBFFDC12F3D6C0E
:1001800074319ABD56833DDA3D00C77F11BED9E474
:10019000BB4C3E916BAAAABE000000803F05A84C54
:1001A000CDB2D44EB93836A9020C50B99186880820
:1001B0003CA6AAAA2ABE000000803F004E414E493C
:1001C0004E495459494E46CDCCCC3D0AD7233C1715
:1001D000B7D13877CC2B329595E6241FB14F0A0062
:1001E0000020410000C84200401C4620BCBE4CCA52
:1001F0001B0E5AAEC59D74434F4D4D554E4943415C
:1002000054494F4E0044525952554E004552524F98
:10021000525300494E464F004543484F0047322F46
:1002200047332062616420706172616D657465722C
:10023000730A00205A3A200020593A20004265648F
:1002400020583A20004D65736820706F696E7420E5
:1002500063616E6E6F74206265207265736F6C7679
:1002600065640A00456E642066696C65206C69737C
:10027000740A00426567696E2066696C65206C6966
:1002800073740A00286E6F2066696C6529005344F8
:10029000207072696E74696E6720627974652000DF
:1002A0004E6F74205344207072696E74696E670AD1
:1002B0000043757272656E742066696C653A200041
:1002C0002569730025696D202569730025696820FB
:1002D00025696D20256973002569642025696820DA
:1002E00025696D20256973002569792025696420B9
:1002F0002569682025696D20256973005072696E33
:10030000742074696D653A20006F6E2E0A006F6666
:10031000662E0A0047323620446562756720001851
:100320000213020C020502F7016F666600444542A3
:1003300055473A004B494C4C45442E20004D313135
:10034000332053006F6B002C20002C2000544845B4
:10035000524D414C5F50524F54454354494F4E000B
:100360004155544F5245504F52545F53445F53547C
:100370004154555300454D455247454E43595F50F2
:10038000415253455200434153455F4C49474854FD
:100390005F4252494748544E45535300544F4747D4
:1003A0004C455F4C494748545300534F46545741BE
:1003B00052455F504F574552004255494C445F509B
:1003C000455243454E54004C4556454C494E475FB7
:1003D00044415441005A5F50524F424500415554E8
:1003E0004F4C4556454C005052494E545F4A4F427F
:1003F0000050524F4752455353004155544F5245B8
:10040000504F52545F54454D5000564F4C554D453A
:100410005452494300454550524F4D0053455249AF
:10042000414C5F584F4E5F584F4646004649524D2B
:10043000574152455F4E414D453A4D61726C696E70
:1004400020312E312E3920284769746875622920A1
:10045000534F555243455F434F44455F55524C3AC5
:1004600068747470733A2F2F6769746875622E63AD
:100470006F6D2F4D61726C696E4669726D77617236
:10048000652F4D61726C696E2050524F544F434F2F
:100490004C5F56455253494F4E3A312E30204D4114
:1004A0004348494E455F545950453A3344205072B1
:1004B000696E7465722045585452554445525F43E5
:1004C0004F554E543A3120555549443A6365646559
:1004D000326132662D343161322D343734382D3962
:1004E0006231322D633535633632663336376666B0
:1004F0000A002F2F20002054002052004163636522
:100500006C65726174696F6E3A205000546F6F2091
:100510006661722066726F6D207265666572656EC7
:10052000636520706F696E740A0020466C6F773ABD
:1005300020000001363726032BFFFFFF3C3D382A01
:10054000FFFFFFFF2E303E12FFFFFFFFFF02FF08FD
:1005500009FF2C071A1C18FFFFFF08440A2C43242C
:10056000221E206F7574206F662072616E67650AA7
:1005700000536572766F20003A2000205365727632
:100580006F200043290A0061626C656420286D6950
:100590006E2074656D702000436F6C642065787404
:1005A000727564657320617265200020643A0020D2
:1005B000693A0020703A004E6F2063617365206CC9
:1005C000696768740A004D65736820706F696E749E
:1005D0002063616E6E6F74206265207265736F6C4C
:1005E0007665640A004D34323120696E636F727231
:1005F00065637420706172616D65746572207573D6
:100600006167650A00454550524F4D204F4B0A0027
:10061000205A004475616C20456E6473746F7020BD
:1006200041646A7573746D656E7420286D6D293A26
:1006300020003F5A206F7574206F662072616E67CC
:100640006520282D323020746F203230290A003A7C
:10065000200050726F6265205A204F666673657481
:10066000003F4B2076616C7565206F7574206F6656
:100670002072616E67652028302D3130292E0A00E6
:10068000416476616E6365204B3D00416374697619
:10069000652045787472756465723A2000496E76FB
:1006A000616C69642065787472756465720A0043D0
:1006B000616E6E6F7420656E74657220737562640E
:1006C00069723A20004739310A4731205A2D302EBD
:1006D000310A473930005370656369616C204D659C
:1006E0006E753A205A20446F776E20302E310A0002
:1006F0004739310A4731205A2D302E30320A4739D6
:1007000030005370656369616C204D656E753A20E9
:100710005A20446F776E20302E30320A004739312C
:100720000A4731205A2B302E30320A4739300053D5
:1007300070656369616C204D656E753A205A20556D
:100740007020302E30320A004739310A4731205AA2
:100750002B302E310A473930005370656369616C64
:10076000204D656E753A205A20557020302E310A82
:1007700000473239205332005370656369616C2041
:100780004D656E753A204E657874204D657368200E
:10079000506F696E740A004732392053310053702C
:1007A000656369616C204D656E753A2053746172A2
:1007B00074204D657368204C6576656C696E670AB8
:1007C000004D313430205336300053706563696119
:1007D0006C204D656E753A205072656865617420B5
:1007E0004265640A004D35303200537065636961BB
:1007F0006C204D656E753A204C6F61642046572021
:1008000044656661756C74730A004D353030005371
:1008100070656369616C204D656E753A2053617631
:100820006520454550524F4D0A004D333033204529
:100830002D3120533630204336205531005370651A
:100840006369616C204D656E753A204175746F2047
:1008500054756E6520486F74626564205069640A3F
:10086000004D31303620533230340A4D333033208E
:1008700045302053323130204336205531005370FB
:10088000656369616C204D656E753A204175746FC2
:100890002054756E6520486F74656E64205049441D
:1008A0000A003C5370656369616C5F4D656E753E0F
:1008B000003C5370656369616C5F4D656E753E0009
:1008C0002F002F002F002F2E2E0A002F2E2E002F4C
:1008D0002E2E003C5370656369616C5F4D656E75CB
:1008E0003E0A003C5370656369616C204D656E750E
:1008F0003E003C5370656369616C204D656E753ECA
:10090000003C4C6F61642046572044656661756CFD
:1009100074733E003C4C6F6164204657204465660A
:1009200061756C74733E003C4175746F2054756E34
:100930006520486F74626564205049443E003C4124
:1009400075746F2054756E6520486F7462656420FD
:100950005049443E003C4175746F2054756E6520CB
:10096000486F74656E64205049443E003C41757484
:100970006F2054756E6520486F74656E6420504911
:10098000443E003C457869743E003C457869743EBD
:10099000003C5361766520454550524F4D3E003C2A
:1009A0005361766520454550524F4D3E003C4E65A3
:1009B0007874204D65736820506F696E743E003CFA
:1009C0004E657874204D65736820506F696E743E73
:1009D000003C5374617274204D657368204C6576D9
:1009E000656C696E673E003C5374617274204D659E
:1009F0007368204C6576656C696E673E003C50728A
:100A00006568656174206265643E003C507265688B
:100A1000656174206265643E003C5A20446F776EC5
:100A200020302E313E003C5A20446F776E20302E0D
:100A3000313E003C5A20446F776E20302E30323EDB
:100A4000003C5A20446F776E20302E30323E003CFE
:100A50005A20557020302E30323E003C5A205570BE
:100A600020302E30323E003C5A20557020302E313E
:100A70003E003C5A20557020302E313E0056313118
:100A800036004A333320004D3530300A4D34323091
:100A90002053310A4731205A313020463234300A4F
:100AA0004731205830205930204636303030004D04
:100AB000353030004D383531205A0041395620004C
:100AC0004A3232004A3232004731205A352046320B
:100AD00034300A47312058313930205932302046DD
:100AE000363030300A4731205A3020463234300018
:100AF0004731205A3520463234300A4731205831A8
:100B0000393020593139302046363030300A4731BB
:100B1000205A302046323430004731205A352046A2
:100B20003234300A473120583139302059323020A0
:100B300046363030300A4731205A30204632343081
:100B4000004739310A4731205A313020463234309B
:100B50000A4739300A4732380A4732390A473120C2
:100B6000583230205932302046363030300A473142
:100B7000205A302046323430004A3032004A313276
:100B8000004731205A3130004F4B004731205A3155
:100B9000300047393000473120452569463530302F
:100BA00000473120452D302E314625690047312040
:100BB00045302E31462569004731205A25694625A2
:100BC00069004731205A2D302E31462569004731C2
:100BD000205A302E31462569004731205925694673
:100BE000256900473120592D302E314625690047AF
:100BF000312059302E31462569004731205825696A
:100C000046256900473120582D302E314625690090
:100C100047312058302E3146256900473931004789
:100C2000323800473238205A0047323820590047BE
:100C300032382058004132305620004731205A3196
:100C400030004A3034004A3231004A3230004B49D9
:100C50004C4C45442E20004A303400454E4400465A
:100C60004E20004A3032003939393A393939004D8D
:100C70000048004137562000413656202D2D2D00CA
:100C80004A30320041365620005A3A2000593A2064
:100C900000583A2000413556004134562000413377
:100CA0005620004132562000413156200041305636
:100CB00020004D3834004A3136004A313800473977
:100CC000310A4731205A313020463234300A473910
:100CD00030004A3134004A3030004A3031004A3165
:100CE000300024F4D43050C38E20C2A24017828B2F
:100CF0007011127A910D816CD90AA861E108C75868
:100D00006607615143061E4B5D05C145A7041A41A4
:100D10001104093D9803713931034036DB02653314
:100D20009102D4305402802E1D02632CEE01752AEC
:100D3000C501B028A001102781018F2564012B2453
:100D40004B01E0223401AC211F018D200D01801FD9
:100D5000FC00841EED00971DDF00B81CD200E61BCE
:100D6000C600201BBC00641AB200B219A8000A1900
:100D7000A0006A189900D117910040178B00B51692
:100D8000840031167E00B31579003A157300C7143C
:100D90006F0058146A00EE13660088136300251371
:100DA0005E00C7125B006C12570015125400C1118F
:100DB000510070114F0021114B00D61049008D10C9
:100DC00047004610440002104200C00F4000800F50
:100DD0003E00420F3C00060F3B00CB0E3800930E46
:100DE00037005C0E3500270E3400F30D3200C10DC4
:100DF0003100900D3000600D2E00320D2D00050DDC
:100E00002C00D90C2B00AE0C2900850C29005C0CA1
:100E10002700350C27000E0C2600E80B2400C40B1D
:100E20002400A00B23007D0B23005A0B2100390B5B
:100E30002100180B2000F80A1F00D90A1E00BB0A67
:100E40001E009D0A1D00800A1D00630A1C00470A3F
:100E50001B002C0A1B00110A1A00F7091A00DD09F1
:100E60001900C4091900AB091900920917007B0980
:100E70001800630917004C091600360916002009EE
:100E800016000A091500F5081500E0081400CC0842
:100E90001400B8081400A4081400900813007D087A
:100EA00012006B081300580812004608120034089C
:100EB0001100230811001208110001081100F007A9
:100EC0001000E0071000D0071000C0071000B007A6
:100ED0000F00A107100091070E0083070F00740791
:100EE0000F0065070E0057070E0049070E003B076D
:100EF0000D002E070E0020070D0013070D0006073A
:100F00000D00F9060C00ED060D00E0060C00D406FD
:100F10000C00C8060C00BC060C00B0060C00A406B1
:100F20000B0099060C008D060B0082060B0077065D
:100F30000B006C060B0061060A0057060B004C06FE
:100F40000A0042060A0038060A002E060A00240695
:100F50000A001A060A001006090007060A00FD0525
:100F60000900F4050900EB050900E2050900D905AF
:100F70000900D0050900C7050900BE050900B5052F
:100F80000800AD050800A50509009C0508009405AA
:100F900008008C050800840508007C05080074051D
:100FA00008006C050700650508005D05070056058B
:100FB00008004E05070047050700400508003805F2
:100FC0000700310507002A050700230507001C0557
:100FD0000600160507000F050700080506000205B4
:100FE0000700FB040600F5040700EE040600E80411
:100FF0000600E2040700DB040600D5040600CF0467
:101000000600C9040600C3040600BD040600B704B8
:101010000600B1040500AC040600A6040600A00406
:1010200005009B04060095040500900406008A0450
:10103000050085040500800406007A040500750497
:101040000500700405006B040500660405006104DA
:1010500005005C04050057040500520405004D041A
:10106000050048040500430405003E0404003A045A
:10107000050035040500300404002C040500270495
:101080000400230405001E0404001A0404001604CE
:101090000500110404000D04040009040500040403
:1010A000040000040400FC030400F8030400F4033B
:1010B0000400F0030400EC030400E8030400E4036C
:1010C0000400E0030400DC030400D8030400D4039C
:1010D0000400D0030400CC030400C8030300C503CC
:1010E000030024F404D9201BC40C5C0E9804C4092A
:1010F0005F0265077101F405F900FB04B3004804C1
:101100008700C10369005803550003034500BE0270
:101110003A008402310053022A0029022500040209
:101120002000E4011C00C8011900AF01170098015C
:1011300014008401130071011000610110005101BD
:101140000E0043010D0036010B002B010B002001A6
:101150000B00150109000C01090003010800FB0048
:101160000800F3000800EB000700E4000600DE00C2
:101170000600D8000600D2000600CC000500C7001B
:101180000500C2000500BD000400B9000400B50060
:101190000400B1000400AD000400A9000400A50093
:1011A0000300A20003009F0004009B0003009800BE
:1011B00003009500020093000300900003008D00DF
:1011C00002008B00030088000200860002008400F9
:1011D0000300810002007F0002007D0002007B000E
:1011E000020079000200770001007600020074001E
:1011F000020072000100710002006F0002006D0029
:1012000001006C0002006A00010069000200670032
:101210000100660001006500010064000200620038
:10122000010061000100600001005F0002005D003C
:1012300001005C0001005B0001005A000100590040
:101240000100580001005700010056000100550040
:10125000010054000100530000005300010052003F
:10126000010051000100500001004F0001004E003C
:1012700000004E0001004D0001004C0001004B0039
:1012800000004B0001004A00010049000100480035
:101290000000480001004700010046000000460031
:1012A000010045000000450001004400010043002A
:1012B0000000430001004200000042000100410024
:1012C000000041000100400001003F0000003F001D
:1012D00001003E0000003E0001003D0000003D0016
:1012E00001003C0000003C0000003C0001003B000D
:1012F00000003B0001003A0000003A000100390004
:1013000000003900010038000000380000003800FB
:1013100001003700000037000100360000003600F1
:1013200000003600010035000000350000003500E7
:1013300001003400000034000000340001003300DC
:1013400000003300000033000100320000003200D2
:1013500000003200010031000000310000003100C7
:1013600001003000000030000000300001002F00BC
:1013700000002F0000002F0000002F0001002E00B1
:1013800000002E0000002E0001002D0000002D00A6
:1013900000002D0000002D0001002C0000002C009A
:1013A00000002C0000002C0001002B0000002B008E
:1013B00000002B0000002B0001002A0000002A0082
:1013C00000002A0000002A00010029000000290076
:1013D0000000290000002900000029000100280069
:1013E000000028000000280000002800000028005D
:1013F0000100270000002700000027000000270050
:101400000000270001002600000026000000260042
:101410000000260000002600010025000000250035
:101420000000250000002500000025000000250028
:10143000010024000000240000002400000024001B
:10144000000024000100230000002300000023000E
:101450000000230000002300000023000000230000
:1014600001002200000022000000220000002200F3
:1014700000002200000022000100210000002100E5
:1014800000002100000021000000210000002100D8
:1014900000002100010020000000200000002000CA
:1014A00000002000000020000000200000002000BC
:1014B0000000200001001F0000001F0000001F00AE
:1014C00000001F0000001F0000001F0000001F00A0
:1014D00001001E0000001E0000001E0000001E0093
:1014E0000000232C0000B8220000561800003A0F1C
:1014F0000000B8080000B1040000710200003E01C5
:101500000000696E206D6F76655F746F2829206614
:101510006565645F76616C756520666F72205859E9
:101520003A002C2065793D0029202D3E2028657841
:101530003D002C2073793D0020436F6E6E6563740F
:10154000696E672077697468207665727469636173
:101550006C206C696E65202873783D002C206579BD
:101560003D0029202D3E202865783D002C207379F0
:101570003D0020436F6E6E656374696E6720776906
:10158000746820686F72697A6F6E74616C206C6920
:101590006E65202873783D003F5370656369666906
:1015A000656420582C5920636F6F7264696E617492
:1015B00065206F7574206F6620626F756E64732E80
:1015C0000A003F28522965706561742076616C7548
:1015D00065206E6F7420706C61757369626C653B19
:1015E000206D757374206265206174206C65617371
:1015F0007420312E0A003F285229657065617420DD
:101600006D757374206265207370656369666965C2
:1016100064207768656E206E6F74207573696E67DD
:1016200020616E204C43442E0A003F53706563696D
:1016300066696564206E6F7A7A6C652074656D707A
:1016400065726174757265206E6F7420706C61755F
:101650007369626C652E0A003F5370656369666941
:1016600065642066696C616D656E742073697A6566
:10167000206E6F7420706C61757369626C652E0AE0
:10168000003F537065636966696564207072696DB7
:1016900065206C656E677468206E6F7420706C6175
:1016A000757369626C652E0A003F5072696D652022
:1016B0006C656E677468206D757374206265207345
:1016C0007065636966696564207768656E206E6F12
:1016D00074207573696E6720616E204C43442E0A36
:1016E000003F537065636966696564206E6F7A7A3E
:1016F0006C652073697A65206E6F7420706C6175FB
:101700007369626C652E0A003F5370656369666990
:1017100065642052657472616374696F6E204D75E3
:101720006C7469706C696572206E6F7420706C6186
:10173000757369626C652E0A003F5265747261634D
:1017400074696F6E204D756C7469706C6965722078
:101750006D75737420626520737065636966696571
:10176000642E0A003F537065636966696564206C86
:101770006179657220686569676874206E6F74208E
:10178000706C61757369626C652E0A003F537065F9
:10179000636966696564206265642074656D70655F
:1017A000726174757265206E6F7420706C617573F0
:1017B00069626C65202834302D31343043292E0A7B
:1017C0000047323620636F6D6D616E642073746103
:1017D000727465642E2057616974696E6720666F44
:1017E00072206865617465722873292E0A00205A78
:1017F0003A0020593A0020436F756E7420583A0021
:1018000020453A00205A3A0020593A00583A003A06
:10181000004361703A005741524E494E4721204CD7
:101820006F77205A204A65726B206D6179206C6554
:10183000616420746F20756E77616E7465642070CA
:1018400061757365732E0A00205A002059005800F4
:1018500020204D61783A2000205A0020590058007D
:1018600020204D696E3A20004F6E20004F666600C2
:10187000536F667420656E6473746F70733A2000E2
:1018800020643A0020693A0020703A00496E76617F
:101890006C69642065787472756465720A004B64C3
:1018A000200023646566696E652044454641554CB9
:1018B000545F004B69200023646566696E652044AF
:1018C000454641554C545F004B70200023646566CB
:1018D000696E652044454641554C545F005049446B
:1018E000204175746F74756E652066696E697368E2
:1018F0006564212050757420746865206C61737470
:10190000204B702C204B6920616E64204B64206357
:101910006F6E7374616E74732066726F6D20626592
:101920006C6F7720696E746F20436F6E66696775A0
:10193000726174696F6E2E680A00504944204175C7
:10194000746F74756E65206661696C6564212074BE
:10195000696D656F75740A00453120544845524DD4
:10196000414C2052554E4157415900424544205464
:101970004845524D414C2052554E41574159005413
:101980006865726D616C2052756E61776179004592
:10199000312048656174696E67206661696C6564B1
:1019A000004265642068656174696E6720666169DC
:1019B0006C65640048656174696E67206661696C76
:1019C000656400504944204175746F74756E6520DC
:1019D0006661696C6564212054656D70657261741F
:1019E00075726520746F6F20686967680A00204B04
:1019F000643A2000204B693A2000204B703A2000C6
:101A00000A20436C617373696320504944200A00C3
:101A10002054753A2000204B753A2000206D6178E3
:101A20003A2000206D696E3A200020643A200020A0
:101A3000626961733A2000504944204175746F74A3
:101A4000756E65206661696C656421204261642061
:101A50006578747275646572206E756D6265720A60
:101A600000504944204175746F74756E652073741D
:101A70006172740A004F66660A0046616465204818
:101A800065696768742000426564204C6576656C02
:101A9000696E6720004661696C656420746F20651B
:101AA0006E61626C6520426564204C6576656C6988
:101AB0006E670A0020746F6F206C6F6E6720657808
:101AC00074727573696F6E2070726576656E746579
:101AD000640A0020636F6C642065787472757369A2
:101AE0006F6E2070726576656E7465640A00100012
:101AF000C90210012C014001220170011801B0013E
:101B00000E01F00104015002FA00B002F0003003AF
:101B1000E600D003DC009004D2007005C800A006E7
:101B2000BE000008B400B009AA00D00BA000600EEF
:101B3000960060118C000015820020197800C01DED
:101B40006E00A0226400B0275A00902C5000003193
:101B50004600E0343C0010383200903A2800603CE7
:101B60001E00A03D1400803E0A00203F00002CFF14
:101B7000FFFFFFFF0001010101016265640A002C03
:101B80002073797374656D2073746F707065642150
:101B9000204865617465725F49443A20004265647B
:101BA0002068656174696E67206661696C656400B0
:101BB00048656174696E67206661696C656400459B
:101BC000312048656174696E67206661696C65647F
:101BD0000048656174696E67206661696C656400C0
:101BE00070012C0190012701B0012201C0011D01EB
:101BF000F00118011002130130020E016002090108
:101C000090020401C002FF000003FA004003F50047
:101C10008003F000D003EB002004E6007004E10034
:101C2000E004DC004005D700C005D2004006CD002E
:101C3000D006C8008007C3003008BE00F008B90015
:101C4000C009B400B00AAF00B00BAA00D00CA500C8
:101C5000000EA000500F9B00C01096005012910083
:101C600000148C00C0158700B0178200B0197D00E9
:101C7000D01B7800001E730040206E009022690087
:101C8000F024640040275F0090295A00E02B5500A3
:101C9000102E500020304B0010324600E03341003F
:101CA00090353C001037370070383200A0392D00D5
:101CB000B03A2800A03B2300603C1E00103D1900F4
:101CC000903D1400103E0F00703E0A00C03E05001B
:101CD000003F0000403FFBFF803FF6FFC03FF1FFA9
:101CE000453120544845524D414C2052554E4157A4
:101CF00041590042454420544845524D414C2052E0
:101D0000554E4157415900546865726D616C2052BF
:101D1000756E61776179004531204572723A204DC8
:101D2000415854454D50004572723A204D41585427
:101D3000454D5020424544004D415854454D50209A
:101D40007472696767657265640045312045727217
:101D50003A204D494E54454D50004572723A204D3F
:101D6000494E54454D5020424544004D494E54453E
:101D70004D5020747269676765726564004D383430
:101D800020582059205A204500202F002042403A58
:101D90000020403A0002454550524F4D2064617486
:101DA0006173697A65206572726F722E0A00290A62
:101DB000002062797465733B206372632000536571
:101DC0007474696E67732053746F726564202800A1
:101DD000290A002062797465733B206372632000D6
:101DE0002073746F7265642073657474696E6773B1
:101DF0002072657472696576656420280020286306
:101E0000616C63756C6174656429210A0020213D51
:101E10002000454550524F4D20435243206D697379
:101E20006D61746368202D202873746F7265642956
:101E300020002053697A653A2000496E6465783A3B
:101E40002000204D61726C696E3D563535290A00BF
:101E500028454550524F4D3D00454550524F4D206D
:101E600076657273696F6E206D69736D61746368F6
:101E700020004A3135004A3132004A3137002020F3
:101E8000506C616E6E6572427566666572427974F9
:101E900065733A20002046726565204D656D6F724E
:101EA000793A2000436F6D70696C65643A204A612D
:101EB0006E20203320323031390A00207C204175D9
:101EC00074686F723A2028776174746965326B3177
:101ED0002C20416E796375626963206933204D65FA
:101EE0006761290A00323031392D30312D3032000E
:101EF000204C61737420557064617465643A2000ED
:101F0000312E312E390A004D61726C696E002053FA
:101F10006F6674776172652052657365740A00207C
:101F20005761746368646F672052657365740A0053
:101F30002042726F776E206F7574205265736574DE
:101F40000A002045787465726E616C205265736575
:101F5000740A00506F77657255700A00737461726D
:101F6000740A004D3234004D323320257300617500
:101F7000746F25692E67006572726F7220777269BF
:101F800074696E6720746F2066696C650A00205062
:101F90003A00205A3A0020593A0020583A00656E1B
:101FA0006473746F7073206869743A2000446F6EB4
:101FB0006520736176696E672066696C652E0A001C
:101FC0004D3239006F70656E206661696C65642CF6
:101FD0002046696C653A200043616E6E6F74206F15
:101FE00070656E2073756264697220004A30350036
:101FF0004A3233004739310A4731205A2D313020D7
:10200000463234300A4739300053442063617264E9
:10201000206F6B0A006F70656E526F6F742066617F
:10202000696C65640A00766F6C756D652E696E6902
:1020300074206661696C65640A004572726F723A59
:1020400000534420696E6974206661696C0A0065FA
:1020500063686F3A00486F6D696E67206661696CEE
:10206000656400202844525952554E2900473239A0
:10207000204175746F20426564204C6576656C69FB
:102080006E67003F20284C2C522C462C4229206F92
:102090007574206F6620626F756E64732E0A003F40
:1020A0002856296572626F7365206C6576656C20B1
:1020B000697320696D706C61757369626C65202845
:1020C000302D34292E0A00426164205A2076616C3A
:1020D00075650A004E6F2062696C696E65617220D9
:1020E000677269640A0046696C652064656C657492
:1020F00065643A0044656C6574696F6E2066616959
:102100006C65642C2046696C653A200050726F74CF
:1021100065637465642050696E0A004A3036004A6F
:102120003034004A30370020573A004A3038004AED
:1021300030390020573A00656E7175657565696EB6
:10214000672022004B494C4C45442E2000507269B8
:102150006E7465722073746F707065642064756549
:1021600020746F206572726F72732E20466978201A
:10217000746865206572726F7220616E6420757379
:1021800065204D39393920746F207265737461721E
:10219000742E202854656D706572617475726520A7
:1021A00069732072657365742E2053657420697499
:1021B0002061667465722072657374617274696EF1
:1021C00067290A004E6F20436865636B73756D2045
:1021D00077697468206C696E65206E756D626572D2
:1021E0002C204C617374204C696E653A20004E6F50
:1021F00020436865636B73756D2077697468206C24
:10220000696E65206E756D6265722C204C61737409
:10221000204C696E653A2000636865636B73756D69
:10222000206D69736D617463682C204C6173742038
:102230004C696E653A20004C696E65204E756D6282
:102240006572206973206E6F74204C617374204C2A
:10225000696E65204E756D6265722B312C204C6164
:102260007374204C696E653A20004D313130004D59
:1022700033310053442072656164206572726F725D
:102280000A00446F6E65207072696E74696E672013
:1022900066696C650A0020496E76616C6964206528
:1022A0007874727564657220000000A0C0000000A0
:1022B000000000000000005C4300005C4300004D93
:1022C000435072696E7465722073746F70706564C8
:1022D0002064756520746F206572726F72732E2092
:1022E00046697820746865206572726F7220616E2D
:1022F0006420757365204D39393920746F207265FB
:1023000073746172742E202854656D7065726174E7
:102310007572652069732072657365742E2053652C
:1023200074206974206166746572207265737461CB
:102330007274696E67290A0053544F502063616CB0
:102340006C65642062656361757365206F66204209
:102350004C546F756368206572726F72202D207205
:102360006573746172742077697468204D393939E6
:102370000A0042696C696E656172204C6576656C15
:10238000696E6720477269643A0A007C3C3E5E2BA6
:102390003D3F2F5B5D3B2C2A225C00000021002486
:1023A0000027002A002D0030003300010100000446
:1023B0000107010A0100002200250028002B002E41
:1023C000003100340002010000050108010B01008A
:1023D0000020002300260029002C002F00320000DE
:1023E00001000003010601090105050505070508AF
:1023F000080808020202020A0A0808040404040188
:1024000001010101010101030303030303030304A9
:102410000707070C0C0C0C0C0C0C0C020202020639
:10242000060606060606060B0B0B0B0B0B0B0B0129
:1024300002102020080810204010204080020102D5
:10244000010804020101020408102040808040209D
:1024500010080402018004020180402010080402D8
:102460000108040201010204081020408001020456
:10247000081020408000000A0B02090C0D0E08070E
:102480000304010000000000000000000000000044
:10249000000000000000000000000000000000003C
:1024A00000121110000000000000000000000000F9
:1024B0000000000000000000000000556E6B6E6F11
:1024C000776E20636F6D6D616E643A2022005072EA
:1024D0006F62696E67206661696C65640A00205AE4
:1024E0003A200020593A200042656420583A2000E2
:1024F0002066697273740A005A0059005800486FC8
:102500006D652000627573793A207061757365643A
:1025100020666F7220696E7075740A006275737937
:102520003A2070617573656420666F7220757365FB
:10253000720A00627573793A2070726F6365737303
:10254000696E670A004A3135004B494C4C45442EB0
:1025500020004B494C4C206361757365642062799F
:10256000204B494C4C20627574746F6E2F70696EED
:102570000A004B494C4C45442E20004B494C4C2002
:1025800063617573656420627920746F6F206D7567
:10259000636820696E6163746976652074696D652E
:1025A000202D2063757272656E7420636F6D6D618E
:1025B0006E643A20004A3131005072696E7465725F
:1025C0002068616C7465642E206B696C6C2829200E
:1025D00063616C6C6564210A000000A0C00000000B
:1025E0000000000000000048420000484200008057
:1025F00040000000005761726E696E673A20486FB4
:102600006D696E672042756D702044697669736FDD
:1026100072203C20310A000202040000A0400000A9
:10262000A040000000400000614300005C43000047
:102630004D43FFFFFFFFFDFCFAF8F6F4F2F0EEEC7D
:10264000EAE9E7E5E3E1E0DEDCDAD9D7D5D4D2D0B8
:10265000CFCDCBCAC8C7C5C3C2C0BFBDBCBAB9B74E
:10266000B6B4B3B2B0AFADACAAA9A8A6A5A4A2A1B6
:10267000A09E9D9C9A99989795949392908F8E8DF9
:102680008B8A8988878684838281807F7E7D7B7A1E
:10269000797877767574737271706F6E6D6C6B6A22
:1026A000696867666564636261605F5E5D5C5B5A12
:1026B0005958585756555453525150504F4E4D4CEF
:1026C0004B4A4A4948474646454443424241403FB7
:1026D0003E3E3D3C3B3B3A3938383736353534336E
:1026E00032323130302F2E2E2D2C2B2B2A29292817
:1026F000272726252524232322212120201F1E1EB3
:102700001D1C1C1B1B1A1919181817161615151441
:10271000131312121111100F0F0E0E0D0D0C0C0BC6
:102720000A0A090908080707060605050404030341
:10273000020201000048617264636F6465642044B2
:10274000656661756C742053657474696E67732077
:102750004C6F616465640A00D0070000D007000078
:102760003C000000102700000000FA430000FA437C
:102770000000C040000070420000A0420000A042E3
:102780000000C8433333B9423A0A0020286D6D294E
:102790000020204D393030204B004C696E6561724D
:1027A00020416476616E63653A0A0020204D383519
:1027B00031205A005A2D50726F6265204F66667341
:1027C00065740020440020490020204D333034201F
:1027D000500020440020490020204D33303120504B
:1027E000005049442073657474696E67733A0A0037
:1027F000205A0020204D36363600456E6473746FC3
:10280000702061646A7573746D656E743A0A002095
:102810005A00204A00202047323920572049002002
:102820005A0020204D3432302053004175746F20FF
:10283000426564204C6576656C696E673A0A0020D3
:102840005A0020590020204D323036205800486F61
:102850006D65206F66667365743A0A002045002036
:102860005A002059002058002054002053002020F6
:102870004D32303520510020453C6D61785F655FF9
:102880006A65726B3E0020583C6D61785F785F6AC4
:1028900065726B3E20593C6D61785F795F6A657245
:1028A0006B3E205A3C6D61785F7A5F6A65726B3E61
:1028B00000416476616E6365643A20513C6D696ED7
:1028C0005F7365676D656E745F74696D655F757361
:1028D0003E20533C6D696E5F666565647261746528
:1028E0003E20543C6D696E5F74726176656C5F6604
:1028F000656564726174653E0020540020520020BA
:10290000204D323034205000416363656C65726144
:1029100074696F6E2028756E6974732F7332293A4B
:1029200020503C7072696E745F616363656C3E2019
:10293000523C726574726163745F616363656C3E7F
:1029400020543C74726176656C5F616363656C3EB4
:102950000A00204500205A0020590020204D323026
:10296000312058004D6178696D756D204163636554
:102970006C65726174696F6E2028756E6974732F4F
:102980007332293A0A00204500205A0020590020BD
:10299000204D3230332058004D6178696D756D20BF
:1029A0006665656472617465732028756E697473F9
:1029B0002F73293A0A00204500205A002059002090
:1029C000204D393220580053746570732070657241
:1029D00020756E69743A0A0020204D323030204450
:1029E000300A0020204D32303020440020446973EA
:1029F00061626C65640A0046696C616D656E742085
:102A000073657474696E67733A0020204732312011
:102A10002020203B00526573656E643A20006F6B86
:102A20000020746F6F206C6F6E672065787472750C
:102A300073696F6E2070726576656E7465640A00E6
:102A400020636F6C6420657874727573696F6E2093
:102A500070726576656E7465640A004572726F7295
:102A60002077726974696E6720746F2045455052F3
:102A70004F4D210A00545249474745524544006F83
:102A800070656E003A20007A5F70726F6265007A3E
:102A9000325F6D696E007A5F6D696E00795F6D6996
:102AA0006E00785F6D696E005265706F7274696E4A
:102AB0006720656E6473746F7020737461747573CE
:102AC0000A000000000100000001000080005555D0
:102AD00055000000400033333300AAAA2A0049926F
:102AE000240000002000C7711C0099991900D145ED
:102AF0001700555515003BB1130024491200111160
:102B00001100000010000F0F0F00E3380E00437992
:102B10000D00CCCC0C00C3300C00E8A20B006421EB
:102B20000B00AAAA0A00703D0A009DD80900427B4A
:102B3000090092240900DCD30800888808001042AC
:102B4000080000000800F0C10700878707007550E3
:102B50000700711C07003EEB0600A1BC060069904F
:102B6000060066660600703E06006118060017F44F
:102B7000050074D105005BB00500B29005006272DB
:102B800005005555050078390500B81E05000505F6
:102B900005004EEC040087D40400A1BD040090A7FA
:102BA000040049920400C17D0400EE690400C75688
:102BB0000400444404005C32040008210400411075
:102BC0000400000004003FF00300F8E0030026D2F8
:102BD0000300C3C30300CCB503003AA803000A9B5B
:102BE0000300388E0300C08103009F750300D06985
:102BF0000300505E03001D53030034480300913D61
:102C000003003333030016290300381F0300971510
:102C10000300300C0300030303000BFA020049F128
:102C20000200BAE802005CE002002DD802002DD0BC
:102C3000020059C80200B0C0020031B90200DAB186
:102C40000200AAAA0200A0A30200BC9C0200FA95FE
:102C500002005C8F0200DF88020082820200457C55
:102C600002002776020027700200436A02007C649B
:102C70000200D05E02003F590200C85302005772A2
:102C80006974696E6720746F2066696C653A20000C
:102C90006F70656E206661696C65642C2046696C96
:102CA000653A20006F70656E206661696C65642C02
:102CB0002046696C653A200046696C652073656C36
:102CC00065637465640A002053697A653A2000469A
:102CD000696C65206F70656E65643A2000206669D6
:102CE0006C653A2000646F696E6700667265736890
:102CF000004E6F772000454E4420535542524F55A9
:102D000054494E450A002220706F730022207061E2
:102D100072656E743A2200535542524F5554494ED3
:102D2000452043414C4C207461726765743A22001F
:102D30004B494C4C45442E2000747279696E6720D3
:102D4000746F2063616C6C207375622D67636F64B0
:102D5000652066696C6573207769746820746F6F8D
:102D6000206D616E79206C6576656C732E204D4107
:102D700058206C6576656C2069733A000DEEF0F0B2
:102D800011241FBECFEFD1E2DEBFCDBF00E00CBFEC
:102D900014E0A0E0B2E0EAE2FBEF01E00BBF02C00A
:102DA00007900D92A033B107D9F729E1A0E3B4E071
:102DB00001C01D92AF33B207E1F716E1CFEBD6E1C8
:102DC00000E006C021970109802FFE010E94F9FC56
:102DD000CE3BD10780E00807A9F70E9448E80C9491
:102DE00084FD0C9400002F923F924F925F926F925D
:102DF0007F928F929F92AF92BF92CF92DF92EF928B
:102E0000FF920F931F93CF93DF93CDB7DEB7CA58CE
:102E1000D1090FB6F894DEBF0FBECDBF21E02093DD
:102E2000DA1080912F188D3411F40C9439218435E7
:102E300011F40C94F62E873411F00C94422F8091EB
:102E40002D1890912E188A31910509F4C2C79CF46F
:102E5000843091053CF482309105D4F597FF31C060
:102E60000C9435218430910509F4D6C1059709F4F5
:102E700012C20C9435218A32910511F40C94DD1F95
:102E80006CF48D31910509F4BFC78E31910509F4B9
:102E9000BFC74C9711F00C9435219FC78B35910516
:102EA00011F40C94B6208C35910511F40C94BA20D1
:102EB0008A35910511F00C943521109237040C9449
:102EC000442F80911D0281110C94492F0C94442FA2
:102ED00020911D02222311F40C94442F11E002973B
:102EE00009F010E00E94BF9219821A821B821C8294
:102EF0001D821E821F82188682E50E94924D8823C1
:102F000009F43AC10E94124D4B015C0120E030E00F
:102F1000A9010E94B2F5882309F444C1C090450478
:102F2000D0904604E0904704F0904804CCAADDAA73
:102F3000EEAAFFAAC0904904D0904A04E0904B0446
:102F4000F0904C04C8AED9AEEAAEFBAEC090C5104E
:102F5000D090C610E090C710F090C810CCAEDDAE97
:102F6000EEAEFFAEC090C910D090CA10E090CB106A
:102F7000F090CC102496CCAEDDAEEEAEFFAE249732
:102F80002CAD3DAD4EAD5FAD6CA97DA98EA99FA9BD
:102F90000E94B2F581110BC0A701960168AD79AD11
:102FA0008AAD9BAD0E94B2F5882309F4FBC020E0F6
:102FB00030E0A901C501B4010E94B2F5881F88273D
:102FC000881F181739F0C12CD12C00E8E02E0FEB28
:102FD000F02E06C0C12CD12CB0E8EB2EBFE3FB2EA7
:102FE0002C96CCAEDDAEEEAEFFAE2C972CA93DA953
:102FF0004EA95FA96CAD7DAD8EAD9FAD0E94FDF970
:1030000028966CAF7DAF8EAF9FAF289728AD39ADB6
:103010004AAD5BAD24966CAD7DAD8EAD9FAD249772
:103020000E94FDF96B017C0128962CAD3DAD4EADA3
:103030005FAD2897CA01B9010E9417F62B013C0128
:10304000A7019601C701B6010E9417F69B01AC01CA
:10305000C301B2010E94FEF90E9469FC2B013C01F0
:1030600020E030E040E05FE30E9417F660966CAF2E
:103070007DAF8EAF9FAF6097A5019401C501B401EC
:103080000E9417F64B015C0160962CAD3DAD4EAD34
:103090005FAD6097CA01B9010E9417F69B01AC01B0
:1030A000C501B4010E94FDF90E9469FC2C962CAD6B
:1030B0003DAD4EAD5FAD2C970E9417F64B015C0104
:1030C000C701B6019058A30192010E94DAFAA50146
:1030D00094010E9417F66B017C012CAD3DAD4EAD05
:1030E0005FAD6CA97DA98EA99FA90E94FEF920E081
:1030F00030E040E05FE30E9417F69B01AC01C7019E
:10310000B6010E94FEF92CA93DA94EA95FA90E9413
:10311000FDF969837A838B839C8324962CAD3DAD26
:103120004EAD5FAD249768AD79AD8AAD9BAD0E9481
:10313000FEF920E030E040E05FE30E9417F66B010B
:103140007C01A301920128966CAD7DAD8EAD9FAD43
:1031500028970E94DAFAA50194010E9417F69B01B4
:10316000AC01C701B6010E94FEF928AD39AD4AADE8
:103170005BAD0E94FDF912C089E40E94924D882344
:1031800031F00E94124D69837A838B839C838AE499
:103190000E94924D882331F00E94124D6D837E83F0
:1031A0008F83988720E030E0A90169817A818B8143
:1031B0009C810E94B2F581110EC020E030E0A9018F
:1031C0006D817E818F8198850E94B2F5811103C047
:1031D000EAE3F0E20DC0412FBE016F5F7F4F85EC47
:1031E00090E10E946CB90C94442F0E9414E2F80103
:1031F00084918F010F5F1F4F8111F7CFEDE1F2E056
:1032000084918F010F5F1F4F882311F40C94442F7A
:103210000E9414E2F801F4CF80E50E94924D8823C9
:1032200079F08091300490913104009749F04AE0A0
:1032300050E060E070E00E9431F46B017C0103C05B
:10324000C12CD12C760183E50E94924D882361F038
:103250000E94124D20E030E04AE754E40E9417F645
:103260000E9447FB6B017C010E94A8740E94518A56
:10327000C60ED71EE81EF91E0E94518ADC01CB0142
:103280008C199D09AE09BF09B7FD02C00C94442FEB
:103290000E94ADB5F1CF80911D02882311F40C94EA
:1032A000442F0E94BF9289E40E94924D882329F006
:1032B0000E94124D2B013C0103C0412C512C3201C4
:1032C0008AE40E94924D882329F00E94124D4B01FE
:1032D0005C0103C0812C912C540180E50E94924D29
:1032E000882329F00E94124D6B017C0103C0C12C80
:1032F000D12C760181E50E94924D882339F00E94FD
:10330000124D6CAB7DAB8EAB9FAB04C01CAA1DAA4B
:103310001EAA1FAA2091D910C657DF4F2883CA586A
:10332000D0406091000270910102072E000C880BC2
:10333000990B0E94B8F520912D0230912E024091F8
:103340002F02509130020E9417F62AE037ED43E237
:103350005CE30E9417F668AB79AB8AAB9BAB8091BC
:10336000450490914604A0914704B091480488AF69
:1033700099AFAAAFBBAF9C01AD01C301B2010E94DE
:10338000FEF9A1966CAF7DAF8EAF9FAFA197409035
:10339000490450904A0460904B0470904C04A3017F
:1033A0009201C501B4010E94FEF9A5966CAF7DAFF4
:1033B0008EAF9FAFA5972091C5103091C610409158
:1033C000C7105091C810C701B6010E94FEF9A99616
:1033D0006CAF7DAF8EAF9FAFA9972091C910309190
:1033E000CA104091CB105091CC106CA97DA98EA928
:1033F0009FA90E94FEF9AD966CAF7DAF8EAF9FAFD7
:10340000AD97C8ACD9ACEAACFBACC982DA82EB822E
:10341000FC824D825E826F8278860E94518A9B0177
:10342000AC0128533F4F4F4F5F4FCB57DF4F28839F
:1034300039834A835B83C558D040ADEC8A2EACEC0F
:103440009A2EA92CADE3BA2E25961FAE2597299664
:103450001FAE29972D961FAE2D9761961FAE6197CF
:103460000E94807B0E94518A8B019C01CB57DF4FC9
:10347000C880D980EA80FB80C558D0400C191D094E
:103480002E093F0937FD10C09B01AC0128533F4F67
:103490004F4F5F4FCB57DF4F288339834A835B837E
:1034A000C558D0400E94ADB525967FAD2597299689
:1034B0006FAD29972D969FAD2D9761968FAD619732
:1034C000272F362F492F582FC501B4010E94FEF92E
:1034D0006CAB78AF8CAF21969FAF219720E030E0A6
:1034E00040E85FE30E9424FC181644F41CAA18AEBE
:1034F00030E83CAF4FE321964FAF21978091C51044
:103500009091C610A091C710B091C810E1968CAFF1
:103510009DAFAEAFBFAFE197C0904504D0904604D9
:10352000E0904704F0904804E596CCAEDDAEEEAEF8
:10353000FFAEE5972196DFAC2197DF92ECACEF92DE
:10354000F8ACFF922CA92F93E196ACACBDACCEACFD
:10355000DFACE197A996ECACFDAC0EAD1FADA99721
:10356000A1962CAD3DAD4EAD5FADA197E5966CAD8E
:103570007DAD8EAD9FADE5970E94D8C00F900F90A6
:103580000F900F9062966FAF629763967FAF6397CD
:1035900064968FAF649765969FAF65978091C910C9
:1035A0009091CA10A091CB10B091CC10E9968CAF3D
:1035B0009DAFAEAFBFAFE997C0904904D0904A0429
:1035C000E0904B04F0904C04ED96CCAEDDAEEEAE48
:1035D000FFAEED972196DFAC2197DF92ECACEF9236
:1035E000F8ACFF922CA92F93E996ACACBDACCEAC55
:1035F000DFACE997AD96ECACFDAC0EAD1FADAD9771
:10360000A5962CAD3DAD4EAD5FADA597ED966CADDD
:103610007DAD8EAD9FADED970E94D8C00F900F90FD
:103620000F900F9066966FAF669767967FAF67971C
:1036300068968FAF689769969FAF699789819A81DD
:10364000AB81BC81C358DF4F88839983AA83BB8336
:10365000CD57D040CD80DE80EF80F884CF57DF4F4C
:10366000C882D982EA82FB82C158D0406A961FAED6
:103670006A9725967FAD259729966FAD29972D9648
:103680009FAD2D9761968FAD6197272F362F492FCC
:10369000582FBCA9A8ADFCAD2196EFAD21976B2F9B
:1036A0007A2F8F2F9E2F0E94FDF92FE632E143E003
:1036B0005BE30E94B2F587FD29C125967FAD259772
:1036C00029966FAD29972D969FAD2D9761968FAD59
:1036D0006197272F362F492F582FBCA9A8ADFCADD5
:1036E0002196EFAD21976B2F7A2F8F2F9E2F0E945F
:1036F000FEF920E030E040E05FE30E9417F6662E1E
:10370000972E882E792E9F938F937F936F93E196B8
:10371000ACACBDACCEACDFACE197A996ECACFDACEB
:103720000EAD1FADA997A1962CAD3DAD4EAD5FADD1
:10373000A197E5966CAD7DAD8EAD9FADE5970E94EE
:10374000D8C00F900F900F900F906B966FAF6B9744
:103750006C967FAF6C976D968FAF6D97C757DF4FA5
:103760009883C958D0407F928F929F926F92E9962A
:10377000ACACBDACCEACDFACE997AD96ECACFDAC7F
:103780000EAD1FADAD97A5962CAD3DAD4EAD5FAD69
:10379000A597ED966CAD7DAD8EAD9FADED970E947A
:1037A000D8C00F900F900F900F90162F072FB82EA4
:1037B000A92E66962FAD669767963FAD6797689678
:1037C0004FAD689769965FAD6997CF57DF4F6881B6
:1037D00079818A819B81C158D0400E94FEF920E006
:1037E00030E040E05FE30E9417F61B012C01629677
:1037F0002FAD629763963FAD639764964FAD649724
:1038000065965FAD6597C358DF4F688179818A817E
:103810009B81CD57D0400E94FEF920E030E040E08F
:103820005FE30E9417F69B01AC016B966FAD6B973F
:103830006C967FAD6C976D968FAD6D97C757DF4FC8
:103840009881C958D0400E94FDF96B017C0120E0AD
:1038500030E0A9010E9424FC87FF04C0F7FAF0942D
:10386000F7F8F094A2019101612F702F8B2D9A2D02
:103870000E94FDF91B012C0120E030E0A9010E940B
:1038800024FC87FF04C057FA509457F85094A201C3
:103890009101C701B6010E94FEF92DEC3CEC4CEC05
:1038A0005DE30E94B2F518168CF566961FAF669719
:1038B00067960FAF67976896BFAE68976996AFAE89
:1038C00069976B96DFAC6B976296DFAE62976C96EA
:1038D000EFAC6C976396EFAE63976D96FFAC6D9708
:1038E0006496FFAE6497C757DF4F2881C958D04010
:1038F00065962FAF65976CAA98AE8CAE21967FAE79
:10390000219731E06A963FAF6A97B3CE6A964FAD82
:103910006A97411144C125967FAD259729966FADD1
:1039200029972D969FAD2D9761968FAD6197272F83
:10393000362F492F582FBCA9A8ADFCAD2196EFAD6D
:1039400021976B2F7A2F8F2F9E2F0E94FDF96B01ED
:103950007C012DEC3CEC4CEC5DE30E9424FC181641
:103960000CF41DC1A7019601C701B6010E94FEF922
:103970002596EFAD25972996BFAD29972D96AFAD2A
:103980002D976196FFAD61972E2F3B2F4A2F5F2F0A
:103990000E94FEF9662E972E882E792E20E030E0C8
:1039A00040E85FE30E9424FC87FFF9C07F928F927A
:1039B0009F926F92E196ACACBDACCEACDFACE19720
:1039C000A996ECACFDAC0EAD1FADA997A1962CADA0
:1039D0003DAD4EAD5FADA197E5966CAD7DAD8EADC5
:1039E0009FADE5970E94D8C00F900F900F900F9059
:1039F0006A966FAF6A976B967FAF6B976C968FAF37
:103A00006C976D969FAF6D977F928F929F926F92FA
:103A1000E996ACACBDACCEACDFACE997AD96ECAC06
:103A2000FDAC0EAD1FADAD97A5962CAD3DAD4EAD29
:103A30005FADA597ED966CAD7DAD8EAD9FADED976D
:103A40000E94D8C00F900F900F900F90162F072F45
:103A5000B82EA92E262F372F482F592FCF57DF4F9B
:103A6000688179818A819B81C158D0400E94FEF98A
:103A700020E030E040E05FE30E9417F66B017C013C
:103A80006A962FAD6A976B963FAD6B976C964FAD6C
:103A90006C976D965FAD6D97C358DF4F68817981E4
:103AA0008A819B81CD57D0400E94FEF920E030E012
:103AB00040E05FE30E9417F69B01AC0162966FAD98
:103AC000629763967FAD639764968FAD64976596B2
:103AD0009FAD65970E94FDF91B012C0120E030E0AD
:103AE000A9010E9424FC87FF04C057FA509457F89C
:103AF0005094A701960166966FAD669767967FAD65
:103B0000679768968FAD689769969FAD69970E9491
:103B1000FDF96B017C0120E030E0A9010E9424FC4A
:103B200087FF04C0F7FAF094F7F8F094A20191012E
:103B3000C701B6010E94FEF92DEC3CEC4CEC5DE3B4
:103B40000E9424FC18165CF166961FAF6697679674
:103B50000FAF67976896BFAE68976996AFAE6997E3
:103B60006A965FAD6A9762965FAF62976B968FAD0C
:103B70006B9763968FAF63976C969FAD6C976496C7
:103B80009FAF64976D96AFAD6D976596AFAF659734
:103B90006CAA98AE8CAE21967FAE2197BCCE2596AE
:103BA0007FAD259729966FAD29972D969FAD2D97BF
:103BB00061968FAD6197272F362F492F582FBCA9BB
:103BC000A8ADFCAD2196EFAD21976B2F7A2F8F2FEB
:103BD0009E2F0E94FDF94B015C0162968FAD6297AA
:103BE00063969FAD63976496AFAD64976596BFADDE
:103BF000659789839A83AB83BC8366968FAD6697FE
:103C000067969FAD67976896AFAD68976996BFADA9
:103C100069978D839E83AF83B8877CA968AD9CAD7F
:103C200021968FAD2197272F362F492F582F60E0EF
:103C300070E080E89FE30E94FDF96B017C01209118
:103C40004D0430914E0440914F04509150040E9415
:103C500017F62B013C012091CD103091CE104091F0
:103C6000CF105091D010BCA9A8ADFCAD2196EFADFE
:103C700021976B2F7A2F8F2F9E2F0E9417F69B0173
:103C8000AC01C301B2010E94FEF969877A878B8774
:103C90009C872091510430915204409153045091DB
:103CA0005404C701B6010E9417F66B017C012091F4
:103CB000D1103091D2104091D3105091D410BCA9A2
:103CC000A8ADFCAD2196EFAD21976B2F7A2F8F2FEA
:103CD0009E2F0E9417F69B01AC01C701B6010E94FE
:103CE000FEF96D877E878F87988BCE0101960E94A3
:103CF000FCCC1CA61DA61EA61FA689819A81AB819D
:103D0000BC8188A399A3AAA3BBA38D819E81AF8107
:103D1000B8858CA39DA3AEA3BFA389859A85AB85E7
:103D2000BC8588A799A7AAA7BBA7AE01485D5F4F2E
:103D3000BE016C5D7F4FCE0180960E9400DAFE01CD
:103D4000BC966F01C657DF4FE880CA58D0408E013D
:103D5000005D1F4F9E01235F3F4FAE01485D5F4FE7
:103D6000BE016C5D7F4FCE0180960E9484648823E3
:103D700029F120E030E040E85FE3BCA9A8ADFCAD4C
:103D80002196EFAD21976B2F7A2F8F2F9E2F0E94B8
:103D9000B2F587FF13C03CA925963FAF259748ADE4
:103DA00029964FAF29975CAD2D965FAF2D97219641
:103DB0008FAD219761968FAF619752CB80E1E5EC93
:103DC000F0E1A5E4B4E001900D928A95E1F70C943E
:103DD000442F0E942F4F0C94442F809144048770ED
:103DE000873011F00C944E2F8FE40E94924D88235F
:103DF00019F00E94034D03C08FE40E94494D8111C8
:103E00000C94442F0C944E2F0E947F940C94442FBA
:103E1000C0904504D0904604E0904704F0904804D8
:103E200088E50E94924D811109C020E030E040E811
:103E300050E4C701B6010E94FDF902C00E94124D74
:103E400068A379A38AA39BA3C0904904D0904A0495
:103E5000E0904B04F0904C0489E50E94924D811152
:103E600009C020E030E040EB51E4C701B6010E94F8
:103E7000FDF902C00E94124D9B01AC0169837A8357
:103E80008B839C8368A179A18AA19BA10E94DAB44B
:103E9000882311F40C94442F80E00E94E0A20E9439
:103EA0002C9D85E40E94924D882321F00E94034DB1
:103EB000182F04C085E40E94494D11E086E50E9458
:103EC000924D882321F00E94E24C262F01C021E070
:103ED000412FBE016F5F7F4FCE0180960E94F4AEEE
:103EE0006B017C019B01AC010E94AAFC81115FC0A7
:103EF00088A099A0AAA0BBA020E030E0A901C5013C
:103F0000B4010E94B2F587FF05C027E137EB41E518
:103F100058EB04C027E137EB41E558E3C501B40194
:103F20000E94FEF9AB01BC018DE392E00E9487C0C4
:103F300089809A80AB80BC8020E030E0A901C50177
:103F4000B4010E94B2F587FF05C027E137EB41E5D8
:103F500058EB04C027E137EB41E558E3C501B40154
:103F60000E94FEF9AB01BC0188E392E00E9487C089
:103F700020E030E0A901C701B6010E94B2F587FF39
:103F800005C027E137EB41E558EB04C027E137EBEB
:103F900041E558E3C701B6010E94FEF9AB01BC013F
:103FA00083E392E00E9487C08AE00E9414E20E94AC
:103FB000139D0E949D610C94442F80911D028823C3
:103FC00011F40C94442F89E40E94924D082F882309
:103FD00021F00E94E24CE62E01C0E12C8AE40E940E
:103FE000924D182F882321F00E94E24CF62E01C03A
:103FF000F12C002319F0F3E0FE1530F0112391F0BD
:10400000E3E0CE2ECF1470F4E5E4F2E084918F016A
:104010000F5F1F4F882311F40C94442F0E9414E269
:10402000F801F4CF0E949E4D0023F1F02091C517B6
:104030003091C6174E2D4203B001439F700D1124DD
:104040008091010690910206680F791F072E000CDF
:10405000880B990B0E94B8F56093C5107093C61039
:104060008093C7109093C8101123F1F02091C717C7
:104070003091C8175F2D5203B001539F700D11246A
:104080008091030690910406680F791F072E000C9B
:10409000880B990B0E94B8F56093C9107093CA10F1
:1040A0008093CB109093CC1080E50E94924D882392
:1040B000E9F00E94034D8823A9F10023D9F020E004
:1040C00030E040E850E46091C5107091C6108091D6
:1040D000C7109091C8100E94FEF96093C5107093AC
:1040E000C6108093C7109093C81004C080E50E944A
:1040F000494DE1CF1123B1F020E030E040EB51E435
:104100006091C9107091CA108091CB109091CC1021
:104110000E94FEF96093C9107093CA108093CB106F
:104120009093CC1086E40E94924D8823D9F00E948F
:10413000124D6B017C0120E030E0A9010E9424FCBB
:10414000181684F420E030E040E752E4C701B601DD
:104150000E94DAFA60932D0270932E0280932F0250
:10416000909330020E9493CD0C94442F20933704F7
:104170000C94442F53E6252E52E0352E68EEE62EA1
:1041800060E1F62E85E494E09DAB8CAB7FE7C72E13
:1041900070E1D72E00E010E0D1018D911D010E9449
:1041A000924D882309F44BC00E94124D2B013C0113
:1041B000133049F0F60120813181428153810E9400
:1041C000FDF92B013C01ACA9BDA92D913D914D916B
:1041D0005C91C301B2010E94FDF94B015C012DEB22
:1041E00037E346E855EB0E9424FC87FD0AC02DEB1F
:1041F00037E346E855E3C501B4010E94B2F518164D
:10420000F4F4133051F440925104509252046092ED
:1042100053047092540401E012C0A5019401F70107
:1042200060817181828193810E94FEF9D7016D9333
:104230007D938D939C931397812F0E94F69E1F5F11
:10424000B4E0EB0EF11CECA9FDA93496FDABECAB90
:10425000F4E0CF0ED11C143009F09ECF01110E9462
:1042600093AD0E949D610C94442F0E942AB10C943E
:10427000442F80912D1890912E188737910509F4BD
:1042800081C70CF0EEC08D34910509F49DC40CF08B
:1042900063C08B31910509F47FC2ACF5863191057D
:1042A00009F42EC20CF58231910509F4F1C584F4AC
:1042B000419711F00C94F32E5F988A98479880915B
:1042C0000801817080930601479812980C94442F3E
:1042D0008431910509F4D4C1459711F00C94F32E63
:1042E0000E94078C0C94442F8831910509F424C254
:1042F0000CF40CC28931910509F429C24A9709F4DA
:104300003DC20C94F32E8032910509F4EBC284F483
:104310008D31910511F40C94442F0CF4D5C28E31DB
:10432000910509F4DBC24F9709F428C30C94F32ECE
:104330008133910509F40AC42CF48A9709F4D1C396
:104340000C94F32E8B34910509F425C48C3491051B
:1043500009F425C40C94F32E8B36910509F47EC51F
:104360000CF049C08535910509F495C534F58235C1
:10437000910509F485C5BCF48135910511F00C94C3
:10438000F32E0E949E770E948CD9109256041092B0
:10439000550468EE73E080E090E00E94D07E0E94B9
:1043A00051300C94442F8335910509F46DC5843543
:1043B000910509F46DC50C94F32E8836910509F426
:1043C00007C47CF48C35910511F00C94F32E93E620
:1043D000C92E92E0D92E29EAE22E20E1F22E10E039
:1043E00073C58936910509F4BBC48A36910509F471
:1043F00017C50C94F32E8037910509F47CC484F41E
:104400008D36910509F4EEC40CF471C48E36910515
:1044100009F407C48F36910509F416C40C94F32EE1
:104420008337910509F429C154F48137910509F4C2
:104430006AC48237910509F4C6C50C94F32E8537FA
:10444000910511F40C94442F8637910511F00C94CA
:10445000F32E00912B1810912C1883E0D12C40E002
:1044600050C6803321E0920711F40C948B2C0CF091
:1044700079C08D3C910509F497C754F58E3B9105A1
:1044800009F4CAC484F48937910509F484C60CF48C
:104490007CC68C38910509F4A9C48B39910509F4BF
:1044A0007AC40C94F32E893C910509F4C9C634F4FE
:1044B000883C910509F474C60C94F32E8B3C91054D
:1044C00009F4E1C68C3C910509F4F9C60C94F32E6D
:1044D000823E910511F40C94372B0CF5833D910528
:1044E00011F40C94B82A7CF48E3C910511F00C94D4
:1044F000F32EA3E6CA2EA2E0DA2EB1E1EB2EB6E04F
:10450000FB2E10E05CC78C3D910511F40C94BB2A86
:104510008D3D910511F40C94C82A0C94F32E8D3224
:1045200041E0940711F40C94342C6CF48831A1E030
:104530009A0711F40C94602B8C32914011F40C9476
:104540000B2C0C94F32E8E32E1E09E0711F40C94A8
:10455000372C8F32914011F00C94F32E0E94215A87
:104560000C94442F853F21E0920711F40C94B72D51
:104570000CF046C08A3941E0940709F4C0C314F531
:104580008039A1E09A0711F40C941E2D4CF4833667
:10459000914011F00C94F32EEAE3F0E20C940B2D11
:1045A0008139F1E09F0711F40C94212D823991405B
:1045B00011F00C94F32E80E00E94599E0E949D61A0
:1045C0000C94442F853A31E0930711F40C94272D75
:1045D0004CF4843A914011F00C94F32E0E946762DF
:1045E0000C94442F8C3AA1E09A0709F4FBC6843F4F
:1045F000914011F00C94F32E0E9478850C94442F76
:104600008A39E2E09E0711F40C94F62DB4F4873F4A
:1046100021E0920711F40C94BD2D14F40C94BA2DE2
:10462000883F41E0940711F40C94C92D8C309240DE
:1046300011F40C94ED2D0C94F32E8B38A3E09A0713
:1046400011F40C94442F6CF48335E3E09E0711F4CD
:104650000C94232E8438934011F40C94882E0C94DF
:10466000F32E803A23E0920709F47BC1873E934002
:1046700011F40C94E02E0C94F32EECE2F4E0E0C480
:10468000E3E7F2E084918F010F5F1F4F882321F051
:104690000E9414E2F801F6CF1092000D83EB9AE02D
:1046A0000E9411A68BE1E3EBFAE0DE011596019082
:1046B0000D928A95E1F78091B10A9091B20A9C839C
:1046C0008B8389EF92E09A83898340E050E0BE01BA
:1046D0006F5F7F4F80E090E00E94348ECE010196A4
:1046E0000E9443B5E4E6F2E084918F010F5F1F4F13
:1046F000882311F40C94442F0E9414E2F801F4CFA3
:104700001092820A1092830A0C94442FE0912B1885
:10471000F0912C188081882329F0803209F41082CE
:104720003196F8CF40E061E080912B1890912C18E1
:104730000E9461E30C94442F8091830A882319F02E
:1047400081E08093820A0E9451E60C94442F1092DB
:10475000820A80918A05813011F00C94442F82E006
:1047600080938A050E94518A60938605709387051D
:1047700080938805909389050C94442F8091830A37
:10478000882311F40C94442F83E50E94924D8111EB
:104790000C94DC2F0C94442F83E40E94494D882311
:1047A00009F450C0E1EBF2E084918F010F5F1F4FDD
:1047B000882321F00E9414E2F801F6CF80914E0C7C
:1047C000811103C0E4E8F2E012C0BE016F5F7F4FC9
:1047D0008BE49CE00E94D9A48E010F5F1F4FD8018B
:1047E0008D918D01882349F10E9414E2F8CF8491C4
:1047F0008F010F5F1F4F882301F10E9414E2F8011F
:10480000F6CF3FE1C32E33E0D32EE12CF12C20E094
:104810008091780590E00E2C02C0959587950A94BA
:10482000E2F780FD41C2AFEFEA1AFA0AB2E0CB0E1E
:10483000D11CE5E0EE16F10459F78AE00E9414E27B
:104840000C94442F8091830A882339F08091820A46
:10485000882319F0EEE8F2E003C0E0EAF2E028C0B5
:1048600084918F010F5F1F4F882321F00E9414E273
:10487000F801F6CF6091FC0C7091FD0C8091FE0C5C
:104880009091FF0C4AE00E941BE28FE20E9414E22A
:104890006091F80C7091F90C8091FA0C9091FB0CDE
:1048A0004AE00E941BE28AE00E9414E20C94442F2A
:1048B00084918F010F5F1F4F882311F40C94442FB4
:1048C0000E9414E2F801F4CF40E060E080912B18E0
:1048D00090912C180E9461E30C94442F0E94E79A57
:1048E0000C94442F8091820A81110E94A8748091B7
:1048F000830A882311F40C94442F80E50E94924D82
:10490000882319F00E94034D03C080E50E94494DA1
:10491000182F482F61E080912B1890912C180E943D
:1049200061E383E50E94924D882381F00E94E24C6E
:10493000AB01BC014093FC0C5093FD0C6093FE0C4A
:104940007093FF0C8BE49CE00E94CAA38091830AC1
:10495000882319F081E08093820A11110C94442F6E
:10496000F2CE80912B1890912C1821E02093810A8F
:1049700040E060E00E9461E30C94442F0E94F27ECC
:104980007B018C0120E831E541E050E00E94A0F974
:10499000C9016DE671E00E94D2FC4B015C01C801C7
:1049A000B70120E13EE040E050E00E94A0F9CA01DA
:1049B000B90128E130E040E050E00E94A0F9762EF5
:1049C000672EC62ED72E4CE3242E312C412C512C91
:1049D000C801B701A20191010E94A0F9F62EE72EAD
:1049E000CA01B901A20191010E94A0F9CB018E0177
:1049F0000F5F1F4F81149104D1F0EF92FF927F93CC
:104A00006F936F927F92BF92AF929F928F9288EE38
:104A100092E09F938F931F930F930E9484F50FB69C
:104A2000F894DEBF0FBECDBFEFE4F0E245C0A114A5
:104A3000B10489F0EF92FF927F936F936F927F9210
:104A4000BF92AF9288ED92E09F938F931F930F9345
:104A50000E9484F5E4CFCD2879F0EF92FF927F9306
:104A60006F936F927F928CEC92E09F938F931F9342
:104A70000F930E9484F5D3CF892B69F0EF92FF92B8
:104A80007F936F9384EC92E09F938F931F930F9388
:104A90000E9484F5C4CFEF92FF9280EC92E09F9346
:104AA0008F931F930F930E9484F50F900F900F9098
:104AB0000F900F900F90B8CF84917F019FEFE91A6C
:104AC000F90A882321F00E9414E2F701F5CFB8011A
:104AD0008CEF92E00E94BDC08AE00E9414E20C9428
:104AE000442F83E50E94924D882311F40C94442FA7
:104AF0000E94F24CE82E80E50E94924D882339F006
:104B00000E94F24C182F87FF03C00C94442F1DE025
:104B100089E40E94924D882351F00E94034D811137
:104B20000C942230E2E3F5E082E695E00AC089E4E5
:104B30000E94494DF4CF31968E179F0711F40C94C3
:104B4000223024911213F7CF0C94F72FF0903204F7
:104B500081E0F826F0923204E4E1F3E084918F01E1
:104B60000F5F1F4F882321F00E9414E2F801F6CF57
:104B7000FF2019F0E9E0F3E002C0EEE0F3E08491F9
:104B80008F010F5F1F4F882311F40C94442F0E9454
:104B900014E2F801F4CF0E9451E60C94442F809166
:104BA0008A05813011F00C94442F82E080938A05AD
:104BB0000E94518A609386057093870580938805CB
:104BC000909389050C94442F0E9475E60C94442F11
:104BD00088E690E00E94369F81110C94442F8091CA
:104BE000780583FF02C00C94442F83E50E94924D08
:104BF000882399F00E94124D0E9442FBCB010E9433
:104C0000FE750E94124D20E030E04AEA52E40E9414
:104C1000B2F5181614F00E9475E60E94B7C20C9403
:104C2000442F8EE40E94924D882311F40C94442F5B
:104C30000E94E24C609326197093271980932819DB
:104C4000909329190C94442F83E50E94494D8823A1
:104C500059F083E50E94924D882319F00E94F24C8E
:104C600001C080E080937805EFE4F0E284918F0149
:104C70000F5F1F4F811103C0EDE2F3E004C00E94FB
:104C800014E2F801F3CF84918F010F5F1F4F882347
:104C900021F00E9414E2F801F6CF8091780581118D
:104CA000B0CDE9E2F3E018C0BB24B394B20E2223E6
:104CB00019F08CE20E9414E2F60185919491FC01B6
:104CC00084918F010F5F1F4F882321F00E9414E20F
:104CD000F801F6CF2B2DA7CD84918F010F5F1F4FC9
:104CE000882309F4AACD0E9414E2F801F5CF1092AE
:104CF00028020C94442F84E393E00E9466B50E943E
:104D0000E8590C94442F83E50E94924D811103C011
:104D1000EFE4F0E20DC00E94F24C8D3320F480935A
:104D200031020C94442F8CE3809331020C94442F75
:104D300084918F010F5F1F4F882321F00E9414E29E
:104D4000F801F6CF4091310250E060E070E08DE371
:104D500093E00E946AC08AE00E9414E20C94442FFF
:104D600089E690E00E94369F811111C0E4E4F3E0EF
:104D700084918F010F5F1F4F882321F00E9414E25E
:104D8000F801F6CF0E9498768AE00E9414E2109211
:104D9000DA100C94373083E50E94924D882311F489
:104DA0000C94442F0E94F24C182F8D3308F01CE312
:104DB0001093E7100E94518A6B017C01212F30E093
:104DC000A8EEB3E00E94EEF9C60ED71EE81EF91E4B
:104DD000C092E310D092E410E092E510F092E61059
:104DE0000C94442F0E94EA980C94442F80917805EB
:104DF00083FF02C00C94442F83E50E94924D8823C8
:104E000011F40C94442F0E94124D0E9442FBCB01DE
:104E10000E94214F0C94442F0E94F7900C94442F31
:104E200080E50E94924D811106C083E50E94924D5B
:104E3000882361F006C00E94F24C81110C94442F2B
:104E4000F4CF0E94E24C6F3F710510F06FEF70E0FD
:104E500070935604609355040C94442F80E50E948F
:104E6000924D811106C010925604109255040C9474
:104E7000442F0E94E24C672B11F00C94442FF3CF87
:104E8000109236040C94442F81E080933604FCC7C2
:104E90000E942464F9C783E50E94494D882309F4E0
:104EA000F3C70E94124D20E030E04AE754E40E942C
:104EB00017F60E9447FB6093DF107093E010809319
:104EC000E1109093E210E0C7D6018D916D010E9430
:104ED000494D882309F46DC0133009F063C00E9466
:104EE000124D4B015C0120E030E040EA51E40E94A9
:104EF000B2F587FF4EC0A50194016091B510709185
:104F0000B6108091B7109091B8100E94DAFA2B0178
:104F10003C019B01AC01609147057091480580916F
:104F2000490590914A050E9417F6609347057093D2
:104F300048058093490590934A05A3019201609129
:104F40006705709168058091690590916A050E94D6
:104F500017F66093670570936805809369059093D1
:104F60006A05609116117091171180911811909136
:104F700019110E94B6F5A30192010E9417F60E9432
:104F800047FB60931611709317118093181190933B
:104F900019118092B5109092B610A092B710B092ED
:104FA000B81007C00E94124DF7016083718382839D
:104FB00093831F5FF4E0EF0EF11C143009F084CFEF
:104FC0000E9458C461C70E94A87483E50E94924D54
:104FD000882309F446C90E94E24C6230710509F049
:104FE00040C90E94CACA8BE50E9414E26091C618AB
:104FF0007091C7188091C8189091C91842E00E941A
:10500000A0E24091CA185091CB186091CC187091D1
:10501000CD188AE493E00E9487C04091CE18509149
:10502000CF186091D0187091D11887E493E00E9456
:1050300087C08DE50E9414E28AE00E9414E224C732
:1050400084918F010F5F1F4F882321F00E9414E28B
:10505000F801F6CF60E08CE194E00E94666161E0C7
:1050600085E194E00E94666161E08AE094E00E943C
:10507000666161E08AEF93E00E94666160E081EF23
:1050800093E00E94666161E087EE93E00E946661B2
:1050900061E08DED93E00E94666161E085ED93E053
:1050A0000E94666161E087EC93E00E94666160E0C7
:1050B00089EB93E00E94666160E08AEA93E00E94D7
:1050C000666160E08CE993E00E94666160E086E8DA
:1050D00093E00E94666160E085E793E00E9466616C
:1050E00060E080E693E00E94666161E08DE493E019
:1050F0000E946661C9C6D8019C91292F2B7F21345B
:1051000019F08150C1F717C011962C912133C9F7BE
:10511000913421F0953421F441E002C0DD24D39490
:1051200098012E5F3F4F89012F5F3F4FF80190811B
:105130009032C9F3E6CF442369F0EFE4F0E28491C2
:105140007F012FEFE21AF20A882321F00E9414E275
:10515000F701F5CFDD2069F0E2EFF4E084917F0103
:105160003FEFE31AF30A882321F00E9414E2F701CB
:10517000F5CFD8018D918D01882309F45ECB0E9473
:1051800014E2F7CF0E9428DE7FC681E080930F06ED
:1051900080930E0679C610920F0610920E0674C602
:1051A00088EC90E00E94369F81116EC684E40E94D4
:1051B000494D882309F441C00E94124D6B017C01C6
:1051C00011E020E030E0A9010E94B2F5811101C098
:1051D00010E01093021920E030E0A901C701B601E8
:1051E0000E94B2F5882349F10E94124DE091AD056D
:1051F000B4E0EB9FF0011124E95FF64E6083718308
:105200008283938320E030E0A901609107197091B7
:1052100008198091091990910A190E94B2F581111B
:105220000CC080E090E0A0EEBFE38093071990935C
:105230000819A0930919B0930A190E9475DA24C6B7
:1052400003E6E02E02E0F02E0AE111E18AE2C82E28
:1052500081E1D82EF70181917F010E94494D882379
:1052600051F00E94124D0E9447FBD8016D937D932F
:105270008D939C9313970C5F1F4FC016D10651F767
:105280000E94E7C201C613E6E12E12E0F12E0BE503
:1052900015E0F70181917F010E94494D882341F07B
:1052A0000E94124DD8016D937D938D939C9313971B
:1052B0000C5F1F4FB5E00B361B0759F7E5C583E5BB
:1052C0000E94924D8823A1F00E94124D60935305D5
:1052D00070935405809355059093560560934F0540
:1052E00070935005809351059093520510E001C0D2
:1052F00011E080E50E94924D882359F00E94124DE2
:10530000609353057093540580935505909356050B
:1053100010E082E50E94924D882359F00E94124DC0
:1053200060935705709358058093590590935A05DB
:1053300010E084E50E94924D882359F00E94124D9E
:1053400060934F05709350058093510590935205DB
:105350009BC5112309F498C54091530550915405FC
:1053600060915505709156058CEF94E00E9487C0BE
:1053700040915705509158056091590570915A0513
:1053800089EF94E00E9487C040914F0550915005ED
:10539000609151057091520586EF94E00E9487C09C
:1053A0008AE00E9414E270C50E94D7606DC51F5F3D
:1053B000B4E0EB0EF11C133011F40C943121F60122
:1053C00081916F010E94494D882389F30E94124DFB
:1053D000D7016D937D938D939C931397812F0E949A
:1053E000F69EE5CF0E94F7AD81114EC509ED15E29D
:1053F000E5E4F4E0FDABECAB9E012F5F3F4F5901BC
:10540000F2E38F2EF6E29F2E1901F8016591759156
:1054100085919491ACA9BDA9CD90DD90ED90FD90C2
:10542000BDABACABA70196010E94FDF92B013C017D
:10543000F101608371838283938320E030E040EA4E
:1054400051EC0E9424FC87FD0AC020E030E040EAD5
:1054500051E4C301B2010E94B2F518162CF4F40114
:10546000849118160CF4B9C5D101CD90DD90ED9062
:10547000FD901D0120E030E040EA51ECC701B6018B
:105480000E9424FC87FD0AC020E030E040EA51E49D
:10549000C701B6010E94B2F518164CF5EAE3F0E236
:1054A00084918F010F5F1F4F811103C0ECE0F5E085
:1054B00004C00E9414E2F801F3CF84918F010F5FC2
:1054C0001F4F882321F00E9414E2F801F6CF88E2F2
:1054D00090E099A388A388EC90E09DA78CA7BE01DB
:1054E000605E7F4FCE018C960E94F6B0CDC40C5FFB
:1054F0001F4FBFEF8B1A9B0AE5EEF5E2E017F107AD
:1055000009F083CFE1E1EE2EE6E0FE2E10E0F5019A
:1055100081919191A191B1915F01F7018193919353
:10552000A193B1937F01812F0E94F69E1F5F1330DC
:1055300071F70E949D6183E992E09DA78CA704E624
:1055400010E019A308A3BE01645D7F4FCE018096D1
:105550000E94F6B08AEB92E09DA78CA719A308A33E
:10556000BE01645D7F4FCE0180960E94F6B08CC470
:105570000E94F95F89C483E50E94924D882309F453
:1055800083C40E94E24C70930102609300027CC4C9
:105590008DED90E00E94369F811176C483E50E94D4
:1055A000924D811103C0EFE4F0E23BC00091AD05E4
:1055B00010E00E94E24C000F111FF801E35AFD4F6A
:1055C000718360838091AD0590E08C01000F111F05
:1055D000000F111F9801295E3D4F7901880F991F17
:1055E000FC01E35AFD4F60817181072E000C880B8E
:1055F000990B0E94B8F52AE037ED43E25CE30E9484
:1056000017F6F801ED5FF64E20813181428153811A
:105610000E9417F6D7016D937D938D939C931397FA
:1056200033C484918F010F5F1F4F882321F00E94A4
:1056300014E2F801F6CF85E40E9414E28091AD05F2
:10564000805D0E9414E2E091AD05F0E0EE0FFF1FD7
:10565000E35AFD4F608171818AE295E00E94A4C007
:1056600085E20E9414E28AE00E9414E20DC480E503
:105670000E94494D882309F407C40E94E24C6B0143
:105680007C0183E50E94924D882321F00E94E24C28
:105690008B0102C00FEF1FEFC8010196039708F0BE
:1056A000F3C3D7FCF1C38C2DE2E3F5E094918917A5
:1056B00009F49DC43196B5E0E236FB07B9F79AC408
:1056C00080E50E94494D882309F4DEC30E94E24C24
:1056D0006B017C018B01672B19F0EAE3F0E27FC0DC
:1056E00083E50E94494D811103C0EFE4F0E207C059
:1056F0000E94E24C8FE59AE00E9435BFC5C38491B9
:105700007F012FEFE21AF20A882321F00E9414E2AF
:10571000F701F5CF60E070E08BE795E00E94A4C050
:105720008091610A28E532E06901C81AD10887FD35
:10573000D394CC0CDD1CCC0CDD1C0D2C000CEE0825
:10574000FF088091600A28E830E04901881A910832
:1057500087FD9394880C991C880C991C092C000CCB
:10576000AA08BB0880915F0A8F3FB9F090E0FC0166
:10577000EE0FFF1F8E0F9F1FFC01EE50F64F0181B1
:10578000128183E0000F111F8A95E1F794E01695CE
:1057900007959A95E1F70E5F1F4F98012F5F3F4FD6
:1057A000C901330FAA0BBB0B9C01AD0128193909A4
:1057B0004A095B09A4EBB0E00E94DEF9A70196015B
:1057C000281939094A095B090E94C2F9B90188E719
:1057D00095E00E94A4C08AE00E9414E255C384911F
:1057E0008F010F5F1F4F882321F00E9414E2F80100
:1057F000F6CFB60181E795E00E94A4C0E2E6F5E0AD
:1058000084918F010F5F1F4F882309F43DC30E94CD
:1058100014E2F801F5CF83E50E94924D882319F038
:105820000E94E24C02C064E071E079A368A380E5C5
:105830000E94924D882339F00E94E24C693833E18E
:10584000730730F402C068EE73E07A83698304C0A2
:1058500088E893E19A838983BE01605E7F4FCE0121
:1058600001960E94F6B010C30E94565F0DC383E5F7
:105870000E94494D182F882371F00E94124D0E94FA
:1058800042FB70931C0260931B0221E0672B09F01E
:1058900020E02093770580E50E94494D882359F048
:1058A00020911B0230911C02232B11F00E94034D0A
:1058B00080937705E9C21111E7C2EFE4F0E2849129
:1058C0008F010F5F1F4F882321F00E9414E2F8011F
:1058D000F6CF80917705882319F06BE273E002C060
:1058E0006EE273E088E995E00E94BDC060911B0202
:1058F00070911C0287E895E00E94A4C0E3E8F5E0FF
:1059000084918F010F5F1F4F882309F4BDC20E944D
:1059100014E2F801F5CF80E50E94494D882351F04B
:105920000E94124D609393057093940580939505A2
:105930009093960589E40E94494D882381F00E9446
:10594000124D2CEA35EC47E25EE30E9417F66093B5
:105950008F0570939005809391059093920584E450
:105960000E94494D882381F00E94124D2CEA35ECAB
:1059700047E25EE30E94DAFA60938B0570938C0530
:1059800080938D0590938E05EFE4F0E284918F0172
:105990000F5F1F4F882321F00E9414E2F801F6CF19
:1059A00040919305509194056091950570919605ED
:1059B00083EB95E00E9487C02CEA35EC47E25EE37A
:1059C00060918F057091900580919105909192055D
:1059D0000E94DAFAAB01BC018FEA95E00E9487C011
:1059E0002CEA35EC47E25EE360918B0570918C0503
:1059F00080918D0590918E050E9417F6AB01BC0138
:105A00008BEA95E00E9487C08AE00E9414E23CC2C3
:105A10000E9414E2F80184918F010F5F1F4F8111E2
:105A2000F7CFE7EBF5E084918F010F5F1F4F8823DD
:105A300009F42AC20E9414E2F801F5CF0E94A8746A
:105A400023C281E00E94599E0E949D611DC289E48B
:105A50000E94924D882321F00E94E24C062F01C043
:105A60000FEF8AE40E94924D882321F00E94E24CBD
:105A7000162F01C01FEF8AE50E94494DF82E8111B3
:105A800005C081E50E94494DD82E01C0D12C07FDEB
:105A900006C017FD04C0F1101CC0D1101AC0EAE303
:105AA000F0E284918F010F5F1F4F811103C0E5EE7B
:105AB000F5E004C00E9414E2F801F3CF84918F0155
:105AC0000F5F1F4F882309F4DFC10E9414E2F80121
:105AD000F5CF043010F41430D0F0EAE3F0E2849112
